:020000040800F2
:1000000000000120C9200008C5080008C708000832
:10001000C9080008CB080008CD080008000000004F
:10002000000000000000000000000000CF080008F1
:10003000D108000800000000D3080008D508000817
:1000400019210008192100081921000819210008A8
:100050001921000819210008192100081921000898
:100060001921000819210008192100081921000888
:100070001921000819210008192100081921000878
:100080001921000819210008192100081921000868
:100090001921000819210008192100081921000858
:1000A0001921000819210008192100081921000848
:1000B00019210008000000000000000019210008BC
:1000C00019210008000000000000000019210008AC
:1000D000000000001921000819210008000000009C
:1000E000192100081921000800000000000000008C
:1000F0000000000000000000000000000000000000
:1001000000000000000000000000000019210008AD
:10011000000000000000000019210008192100085B
:1001200019210008192100081921000819210008C7
:10013000192100080000000000000000000000007D
:1001400019210008192100081921000819210008A7
:100150001921000819210008192100081921000897
:1001600019210008192100081921000800000000C9
:1001700019210008192100080000000000000000FB
:1001800019210008192100081921000800000000A9
:1001C0000348044B834202D0034B03B118477047E6
:1001D0001000002010000020000000000548064923
:1001E0000B1AD90F01EBA301491002D0034B03B145
:1001F0001847704710000020100000200000000089
:1002000010B5064C237843B9FFF7DAFF044B13B15E
:100210000448AFF300800123237010BD10000020BC
:10022000000000001C21000808B5044B1BB1044964
:100230000448AFF30080BDE80840CFE700000000AD
:10024000140000201C21000870B50D4E0D4D761BCA
:10025000B61006D00024013455F8043B9847A64256
:10026000F9D1094E094D761B01F058FFB61006D0A2
:100270000024013455F8043B9847A642F9D170BDDB
:1002800098210008982100089C2100089821000866
:10029000F0B4860746D0541E002A3CD0CAB20346AA
:1002A00002E014F1FF3436D303F8012B9D07F8D197
:1002B000032C29D9CDB245EA05250F2C45EA054581
:1002C00033D9A4F11006360903F1200707EB06170E
:1002D00003F1100242E9045542E902551032BA42D4
:1002E000F8D1721C14F00C0F03EB021204F00F068D
:1002F00013D0331F23F003030433134442F8045B89
:100300009342FBD106F003042CB1C9B21C4403F89C
:10031000011B9C42FBD1F0BC704734461346002CB5
:10032000F3D1F8E714460346C2E71A462646E0E74B
:1003300000000000000000000000000000000000BD
:1003400090F800F06DE9024520F007016FF0000C15
:1003500010F0070491F820F040F049804FF00004BD
:100360006FF00700D1E9002391F840F000F1080098
:1003700082FA4CF2A4FA8CF283FA4CF3A2FA8CF3D0
:100380004BBBD1E9022382FA4CF200F10800A4FA37
:100390008CF283FA4CF3A2FA8CF3E3B9D1E904238B
:1003A00082FA4CF200F10800A4FA8CF283FA4CF3C2
:1003B000A2FA8CF37BB9D1E9062301F1200182FA7C
:1003C0004CF200F10800A4FA8CF283FA4CF3A2FA82
:1003D0008CF3002BC6D0002A04BF04301A4612BA90
:1003E000B2FA82F2FDE8024500EBD2007047D1E993
:1003F000002304F00305C4F100004FEAC50514F022
:10040000040F91F840F00CFA05F562EA05021CBFF2
:1004100063EA050362464FF00004A9E753B94AB9FD
:10042000002908BF00281CBF4FF0FF314FF0FF30FC
:1004300000F06EB9ADF1080C6DE904CE00F006F8DD
:10044000DDF804E0DDE9022304B070472DE9F04750
:10045000089D04468C46002B40F083808A42174654
:1004600047D9B2FA82F242B1C2F1200024FA00F078
:100470009140974040EA010C94404FEA1748230C02
:10048000BCFBF8F61FFA87FE08FB16C143EA0143DE
:1004900006FB0EF1994209D9FB1806F1FF3080F0F6
:1004A0001981994240F21681023E3B445B1AA4B284
:1004B000B3FBF8F008FB103344EA034400FB0EFEE4
:1004C000A64509D93C1900F1FF3380F00581A64506
:1004D00040F2028102383C4440EA0640A4EB0E049C
:1004E00000261DB1D4400023C5E900433146BDE8D4
:1004F000F08702B9FFDEB2FA82F2002A50D1CB1B9C
:100500004FEA174E1FFA87F80126B3FBFEFC210CB9
:100510000EFB1C3341EA034108FB0CF38B4207D965
:1005200079180CF1FF3002D28B4200F2E980844648
:10053000C91AA3B2B1FBFEF00EFB101143EA01444D
:1005400008FB00F8A04507D93C1900F1FF3302D29F
:10055000A04500F2D9801846A4EB080440EA0C40FC
:10056000BFE78B4209D9002D00F0B1800026C5E914
:10057000000130463146BDE8F087B3FA83F6002E1D
:100580004AD18B4202D3824200F2B880841A61EBD6
:10059000030101208C46002DA8D0C5E9004CA5E739
:1005A000C2F1200320FA03F6974001FA02F04FEA65
:1005B000174ED9403043030CB1FBFEF61FFA87F803
:1005C0000EFB161143EA014306FB08F1994204FAB7
:1005D00002F409D9FB1806F1FF3C80F08D809942A6
:1005E00040F28A80023E3B445B1A81B2B3FBFEF0CC
:1005F0000EFB103341EA034100FB08F38B4207D99D
:10060000791800F1FF3C73D28B4271D9023839441A
:10061000CB1A40EA064678E7C6F1200C03FA06F446
:1006200022FA0CF31C4320FA0CF701FA06F34FEA06
:10063000144E21FA0CF11F433B0CB1FBFEF91FFADB
:1006400084F80EFB191143EA014109FB08FA8A45B7
:1006500002FA06F200FA06F308D9611809F1FF3030
:1006600048D28A4546D9A9F102092144A1EB0A01E1
:10067000BFB2B1FBFEF00EFB101147EA014700FBD1
:1006800008F8B84507D9E71900F1FF312ED2B8456F
:100690002CD90238274440EA0940A7EB0807A0FB01
:1006A00002894F45C64649461AD317D05DB1B3EB10
:1006B0000E0267EB010707FA0CFCF2404CEA02025B
:1006C000F740C5E9002700263146BDE8F0872E46F1
:1006D00028460BE70646E9E61846FDE64345E5D21F
:1006E000B8EB020E69EB04010138DFE70846D2E7F8
:1006F00060468DE78146B9E7664675E730464AE7CA
:10070000ACF1020C394413E702383C4424E700BF43
:10071000704700BF30B589B0002403940494059459
:1007200006940794164BDA6C42F00402DA64DA6C31
:1007300002F004020092009ADA6C42F00102DA64DC
:10074000DA6C02F001020192019ADA6C42F00202C4
:10075000DA64DB6C03F002030293029B094D22462C
:100760000821284601F0D2FB0823039301230493B8
:100770000594069403A9284601F008FB09B030BD92
:10078000001002400004004872B6FEE708B50B48AE
:100790000B4B03604FF4E133436000238360C3607D
:1007A00003610C2242618361C3610362436200F012
:1007B00072FB00B908BDFFF7E7FF00BF2C00002067
:1007C0000044004010B5ACB0442200211BA8FFF744
:1007D0005FFD002416941794189419941A945422C7
:1007E000214601A8FFF754FD01F096FB214AD2F8FB
:1007F000903023F01803C2F8903014231B93012388
:100800001D93219322946022239202222592269303
:10081000279310232893072329932A922B921BA80E
:1008200000F06AFCE8B90F23169303231793002303
:10083000189319931A93012116A800F09DFF90B9FF
:100840000223019300230A9301A801F023F960B960
:100850004FF4007001F070FB48B901F08FFA2CB032
:1008600010BDFFF791FFFFF78FFFFFF78DFFFFF739
:100870008BFF00BF0010024000B585B000F064FBA4
:10088000FFF7A0FFFFF746FFFFF780FF0B4B6C461B
:100890000FCB07C424F8023B1B0C23706846FFF7FC
:1008A0004FFD4FF47A7382B26946054800F052FA60
:1008B0004FF47A7000F06AFBE8E700BF38210008C7
:1008C0002C000020FEE7FEE7FEE7FEE7FEE77047AC
:1008D0007047704708B500F047FB08BD82B00A4B6F
:1008E0001A6E42F001021A661A6E02F001020092BC
:1008F000009A9A6D42F080529A659B6D03F0805386
:100900000193019B02B070470010024070B588B09F
:1009100000230393049305930693079302681A4BED
:100920009A4201D008B070BD03F5E6339A6D42F4E7
:1009300000329A659A6D02F400320192019ADA6CE3
:1009400042F00102DA64DB6C03F001030293029BC4
:100950000423039302260496002505950324069498
:100960000723079303A94FF0904001F00FFA4FF4CB
:1009700000430393049605950694079403A94FF04A
:10098000904001F003FACDE700440040D0B50446A2
:10099000016883680269134342691343C2691343C0
:1009A00008688B4A024013430B602268536823F4A3
:1009B0004053E1680B435360A1692268854B9A421A
:1009C00001D0236A1943936823F430630B43936087
:1009D0002268814B9A421CD0804B9A422DD07D4B8D
:1009E0009A4243D010237B498A4260D0E069B0F537
:1009F000004F00F08B80082B00F2E480DFE813F05A
:100A0000B300C900B100E200CC00E200E200E20065
:100A1000CF0003F55843D3F8883003F00303032BCA
:100A200009D8DFE803F0020438060123DBE70423DA
:100A3000D9E70823D7E71023D5E703F5E633D3F842
:100A4000883003F00C030C2B0ED8DFE803F0070D01
:100A50000D0D090D0D0D260D0D0D0B000023C2E728
:100A60000423C0E70823BEE71023BCE703F5C8331F
:100A7000D3F8883003F44063B3F5006F0FD005D886
:100A80007BB1B3F5806F0ED10423ACE7B3F5406FB3
:100A90000BD10823A7E70223A5E70223A3E702233C
:100AA000A1E700239FE710239DE710239BE7082B76
:100AB00078D8DFE803F0087729772677777705007D
:100AC0004FF4004003E000F00BFF00286CD0626898
:100AD00002EB4203834269D8B0EB023F68D800239F
:100AE000070E06025008301847F10001FFF796FC88
:100AF000A0F540723A4B9A425CD82368D860002037
:100B000043E000F09FFAE0E73648E0E7082B53D8CF
:100B1000DFE803F007210552245252520B003148FE
:100B200003E000F0DDFE002848D06268530803EBC4
:100B30004000B0FBF2F080B2A0F110024FF6EF736C
:100B40009A423DD820F00F03C0F3420018432368B7
:100B5000D860002019E000F0D5FEE4E700F072FA5A
:100B6000E1E7204802E000F0BBFE68B3636800EBF9
:100B70005300B0FBF3F080B2A0F110024FF6EF7318
:100B80009A4223D82368D860002000232366636636
:100B9000D0BD00F0B7FEE8E700F054FAE5E74FF407
:100BA0000040E3E70120F0E70020EEE70120ECE75A
:100BB0000120EAE70120E8E70120E6E70020E4E77A
:100BC0000120E2E70120E0E70020DEE70120DCE78A
:100BD000F369FFEF0080004000380140004400400E
:100BE000FFFC0F000024F400436A13F0010F06D04D
:100BF0000268536823F40033816A0B435360436AED
:100C000013F0020F06D00268536823F48033C16AE0
:100C10000B435360436A13F0040F06D00268536815
:100C200023F48023016B0B435360436A13F0080FD6
:100C300006D00268536823F40043416B0B435360B2
:100C4000436A13F0100F06D00268936823F48053B0
:100C5000816B0B439360436A13F0200F06D0026848
:100C6000936823F40053C16B0B439360436A13F002
:100C7000400F0AD00268536823F48013016C0B43C1
:100C80005360036CB3F5801F0BD0436A13F0800FE1
:100C900006D00268536823F40023816C0B43536031
:100CA00070470268536823F4C003416C0B435360E0
:100CB000EBE72DE9F84305460F4616469946DDF861
:100CC00020802C68E46937EA04030CBF0124002467
:100CD000B4423CD1B8F1FF3FF3D000F051F9A0EBA2
:100CE0000900404521D8B8F1000F1ED02B681A68C2
:100CF00012F0040FE5D0DA6912F4006FE1D04FF47E
:100D000000621A622A68136823F4D07313602A6899
:100D1000936823F00103936020236B67AB67EB6755
:100D2000002385F87030032012E02A68136823F44A
:100D3000D07313602A68936823F001039360202323
:100D40006B67AB67002385F87030032000E000205C
:100D5000BDE8F8832DE9F04182B01E46436F202B99
:100D600055D104460D469046002954D0002A54D04F
:100D700090F87030012B52D0012380F8703000239E
:100D8000C3672123436700F0FBF80746A4F85080AF
:100D9000A4F85280A368B3F5805F05D04FF0000837
:100DA000002384F8703014E0236913B14FF0000879
:100DB000F6E7A8460025F3E738F8023B2268C3F3BC
:100DC00008031385B4F8522092B2013A92B2A4F803
:100DD0005220B4F852309BB273B100963B460022C9
:100DE00080212046FFF765FFD8B9002DE4D02368A5
:100DF00015F8012B1A85E5E700963B4600224021B5
:100E00002046FFF756FF70B92023636700E00220F9
:100E100002B0BDE8F0810120FAE70120F8E70220E6
:100E2000F6E70320F4E70320F2E730B583B0044689
:100E30000023C36700F0A4F8054623681B6813F07D
:100E4000080F0CD123681B6813F0040F15D1202361
:100E50006367A367002084F8700003B030BD6FF0B3
:100E60007E430093034600224FF400112046FFF713
:100E700020FF0028E6D00320EFE76FF07E430093C9
:100E80002B4600224FF480012046FFF712FF002876
:100E9000DDD00320E1E768B310B50446436F03B328
:100EA000242363672268136823F00103136020463C
:100EB000FFF76CFD012813D0636ABBB92268536841
:100EC00023F4904353602268936823F02A039360CD
:100ED0002268136843F0010313602046FFF7A5FF63
:100EE00010BD80F87030FFF711FDD9E72046FFF7FD
:100EF0007BFEE3E701207047104B1B780BB9012004
:100F0000704710B504464FF47A70B0FBF3F30C4A07
:100F10001068B0FBF3F001F09DF868B90F2C01D90F
:100F200001200AE0002221464FF0FF3001F05EF878
:100F3000044B1C60002000E0012010BD00000020D8
:100F4000080000200400002010B5032001F03CF848
:100F50000020FFF7D1FF10B10124204610BD044648
:100F6000FFF7BCFCF9E70000034B1B78034A11684C
:100F70000B441360704700BF00000020AC0000204D
:100F8000014B1868704700BFAC00002038B504461C
:100F9000FFF7F6FF0546B4F1FF3F02D0044B1B7884
:100FA0001C44FFF7EDFF401BA042FAD338BD00BF41
:100FB0000000002030B583B00446204B9B6D13F039
:100FC000805F0BD000F0B0FFB0F5007F17D0802C11
:100FD0001FD82DD0702C2DD000211BE0174DAB6DEC
:100FE00043F08053AB65AB6D03F080530193019BDD
:100FF00000F09AFFAB6D23F08053AB65E4E7802CE3
:1010000003D9A02C03D9022104E0002102E0012130
:1010100000E003210A4A136823F007030B4313601F
:10102000136803F007038B4206D1002003B030BDE4
:101030000221EFE70121EDE70120F7E70010024070
:1010400000200240284A9368D26802F0030213F09D
:101050000C030AD00C2B06D0042B1FD0082B20D059
:101060000020024610E0012AF6D11F4A126812F051
:10107000080F0CD11C4AD2F89420C2F303221B495A
:1010800051F8222043B100200C2B0DD07047164A96
:101090001268C2F30312F2E71046F5E71448002283
:1010A000F2E714480022EFE70F4BDB6803F003037D
:1010B000022B16D0032B00D10E4A0B4BD868C0F37D
:1010C00002100130D968C1F3062102FB01F2B2FB24
:1010D000F0F2D868C0F3416001304000B2FBF0F09C
:1010E000D4E7034AE9E700BF00100240602100088E
:1010F0000024F40000127A00002800F02783F0B5E5
:1011000083B00446AE4B9D6805F00C05DE6806F022
:101110000306036813F0100F5AD0E5B10C2D18D058
:10112000A369002B00F0BB80A54A136843F00103BC
:101130001360FFF725FF0746A14B1B6813F0020F52
:1011400040F09A80FFF71CFFC01B0228F4D903204F
:1011500007E3012EE4D19A4B1B6813F0020F03D072
:10116000A369002B00F0F482206A954B1B6813F0F2
:10117000080F5BD0924B1B6803F0F00398425CD8D9
:101180008F4B1A6842F008021A601A6822F0F002C7
:10119000216A0A431A605A6822F47F42E16942EAEE
:1011A00001225A60002D60D0FFF74CFF844B9B68F2
:1011B000C3F30313834AD35C03F01F03D840824B6D
:1011C0001860824B1868FFF797FE002840F0C9822C
:1011D000236813F0010F00F08180082D75D00C2DCD
:1011E00071D06368B3F5803F00F09780B3F5A02F0E
:1011F00000F09980724B1A6822F480321A601A68E3
:1012000022F480221A606368002B00F09980FFF7B7
:10121000B7FE07466A4B1B6813F4003F5ED1FFF729
:10122000AFFEC01B6428F5D903209AE2644BD3F8C3
:1012300094301B0903F0F003A0E7FFF7BBFE002882
:1012400040F088825E4B1A6842F008021A601A6801
:1012500022F0F002216A0A431A605A6822F47F429F
:10126000E16942EA01225A609EE7206AFFF7A2FE86
:10127000002899D0012074E2514B1A6842F008020C
:101280001A601A6822F0F002216A0A431A605A684A
:1012900022F47F42E16942EA01225A6098E7484A13
:1012A000136823F001031360FFF76AFE0746444BFF
:1012B0001B6813F0020F8BD0FFF762FEC01B0228E1
:1012C000F5D903204DE2032E8BD13D4B1B6813F45F
:1012D000003F03D06368002B00F03E82236813F0C8
:1012E000020F4FD0042D3CD00C2D38D0E368002BDA
:1012F00077D0334A136843F480731360FFF740FEDE
:1013000006462F4B1B6813F4806F61D1FFF738FE40
:10131000801B0228F5D9032023E2294A136843F4ED
:10132000803313606FE703F18043A3F53C331A6801
:1013300042F480221A601A6842F480321A6062E72E
:10134000FFF71EFE07461E4B1B6813F4003FC5D077
:10135000FFF716FEC01B6428F5D9032001E2022E18
:10136000C4D1174B1B6813F4806F03D0E368002BC4
:1013700000F0F481124A536823F0FE43216943EAE6
:1013800001635360236813F0080F55D06369002B85
:101390003BD00B4AD2F8943043F00103C2F89430AA
:1013A000FFF7EEFD0646064BD3F8943013F0020F1C
:1013B00042D1FFF7E5FD801B0228F4D90320D0E1DC
:1013C000001002404821000808000020040000200E
:1013D000B44A536823F0FE43216943EA0163536032
:1013E000D0E7B04A136823F480731360FFF7C8FD99
:1013F0000646AC4B1B6813F4806FC3D0FFF7C0FDEB
:10140000801B0228F5D90320ABE1A64AD2F894301C
:1014100023F00103C2F89430FFF7B2FD0646A14B5A
:10142000D3F8943013F0020F06D0FFF7A9FD801B0C
:101430000228F4D9032094E1236813F0040F7AD032
:10144000984B9B6D13F0805F36D1964B9A6D42F0AE
:1014500080529A659B6D03F080530193019B012696
:10146000914B1B6813F4807F28D0A368012B39D0DF
:10147000052B3FD08B4BD3F8902022F00102C3F80C
:101480009020D3F8902022F00402C3F89020A368A3
:10149000002B3DD0FFF774FD0746824BD3F8903008
:1014A00013F0020F46D1FFF76BFDC01B41F28833EA
:1014B0009842F2D9032054E10026D1E77A4A136812
:1014C00043F480731360FFF75BFD0746764B1B68A0
:1014D00013F4807FC9D1FFF753FDC01B0228F5D953
:1014E00003203EE16F4AD2F8903043F00103C2F886
:1014F0009030CCE76B4BD3F8902042F00402C3F855
:101500009020D3F8902042F00102C3F89020BEE76B
:10151000FFF736FD0746634BD3F8903013F0020F08
:1015200008D0FFF72DFDC01B41F288339842F2D955
:10153000032016E1E6B9236813F0200F35D0636A63
:10154000E3B1584AD2F8983043F00103C2F898301A
:10155000FFF716FD0646534BD3F8983013F0020FF1
:1015600023D1FFF70DFD801B0228F4D90320F8E0FA
:101570004C4A936D23F080539365DCE7494AD2F8D7
:10158000983023F00103C2F89830FFF7F9FC0646C3
:10159000444BD3F8983013F0020F06D0FFF7F0FC5D
:1015A000801B0228F4D90320DBE0A36A002B00F0A3
:1015B000D780022B27D00C2D00F0D780394B1A682A
:1015C00022F080721A601B6813F0006F04D1354A54
:1015D000D36823F00303D360324AD36823F08873BF
:1015E00023F48033D360FFF7CBFC04462D4B1B68FC
:1015F00013F0007F00F0A880FFF7C2FC001B022858
:10160000F4D90320ADE0274BDB6803F00301E26A65
:10161000914209D00C2D00F0A680224B1B6813F0DC
:10162000806F2BD001209CE003F07002216B013908
:10163000B2EB011FEED103F4FE42616BB2EB012F5E
:10164000E8D103F07842A16BB2EBC16FE2D103F4B1
:10165000C001E26B5208013AB1EB425FDAD103F00C
:10166000C063226C5208013AB3EB426FD2D10D4BEA
:101670001B6813F0007F4DD0002072E0094A136808
:1016800023F080731360FFF77BFC0546054B1B6856
:1016900013F0007F0AD0FFF773FC401B0228F5D936
:1016A00003205EE00010024000700040304AD36822
:1016B00030491940E36A206B013843EA0013606B3C
:1016C00043EA0023E06B4008013843EA4053206CB2
:1016D0004008013843EA4063A06B43EAC0630B4310
:1016E000D360136843F080731360D36843F0807352
:1016F000D360FFF745FC04461D4B1B6813F0007FC9
:1017000006D1FFF73DFC001B0228F5D9032028E095
:10171000002026E0164B1A6842F080721A60DA68E0
:1017200042F08072DA60FFF72BFC0446104B1B6816
:1017300013F0007F06D1FFF723FC031B022BF5D922
:1017400003200EE000200CE000200AE0012070479A
:10175000012006E0012004E0012002E0012000E079
:10176000002003B0F0BD0120FBE70120F9E700BF36
:10177000001002408C809D01002800F0988070B518
:101780000C4605464E4B1B6803F007038B420BD2F9
:101790004B4A136823F007030B431360136803F0ED
:1017A00007038B4240F085802B6813F0010F39D07E
:1017B0006B68032B09D0022B26D063BB414A126809
:1017C00012F0020F06D1012070E03E4A126812F0BA
:1017D000007F70D03B498A6822F0030213438B607C
:1017E000FFF7CEFB0646374B9B6803F00C036A6895
:1017F000B3EB820F16D0FFF7C3FB801B41F2883397
:101800009842F0D9032051E02E4A126812F4003FAA
:10181000E0D101204AE02B4A126812F4806FD9D13E
:10182000012043E02B6813F0020F06D0254A93688D
:1018300023F0F003A9680B439360214B1B6803F06E
:101840000703A3420AD91E4A136823F00703234360
:101850001360136803F00703A3422ED12B6813F023
:10186000040F06D0174A936823F4E063E9680B433A
:1018700093602B6813F0080F07D0124A936823F483
:101880006053296943EAC1039360FFF7DBFB0D4B0B
:101890009B68C3F303130C4AD35C03F01F03D840C7
:1018A0000A4B18600A4B1868FFF726FB70BD012031
:1018B00070470120FAE70120F8E70120F6E700BFB2
:1018C00000200240001002404821000808000020CB
:1018D00004000020014B1868704700BF080000207A
:1018E00008B5FFF7F7FF054B9B68C3F30223044AD3
:1018F000D35C03F01F03D84008BD00BF00100240B6
:101900005821000808B5FFF7E5FF054B9B68C3F3B6
:10191000C223044AD35C03F01F03D84008BD00BFB4
:101920000010024058210008F8B504460F46584BF5
:10193000DB6813F0030F18D0554BDB6803F003038B
:101940000268934202D001252846F8BD002A00F023
:101950009D804F4BDB68C3F302130133426893420F
:1019600001D00125F0E7002509E00368022B56D0DD
:10197000032B5BD0012B41D00125002DE4D1444A3B
:10198000136823F080631360FFF7FAFA0646404BB2
:101990001B6813F0006F05D0FFF7F2FA831B022BD0
:1019A000F5D90325002DCFD1002F4DD138490B6932
:1019B00023F0784323F4FE43A068E268D20642EAAB
:1019C000002213430B61324A136843F080631360B3
:1019D000FFF7D6FA06462E4B1B6813F0006F05D1B1
:1019E000FFF7CEFA831B022BF5D90325002DABD1CF
:1019F000274A1369A1690B431361A5E7244A1268BA
:101A000012F0020F1ED02248C26822F073026168F1
:101A1000013943EA01131343C3600025ADE71C4AB3
:101A2000126812F4806FEED10125A6E7184A1268F9
:101A300012F4003FE7D1164A126812F4802FE2D167
:101A400001259AE7012598E7012F0FD01048026978
:101A500022F0C06222F4FE42A16863695B08013B88
:101A60005B0643EA012313430361ACE708480269BC
:101A700022F4C00222F4FE42A16823695B08013B04
:101A80005B0543EA0123134303619CE701255BE700
:101A9000001002402DE9F04182B00446036813F4BF
:101AA000006F25D0C36BB3F5000F06D0B3F5400F20
:101AB00012D04BB1012637461CE0AE4AD36843F43E
:101AC0008033D360002708E000210430FFF72CFFAB
:101AD000074610B106460DE00027A64AD2F8883026
:101AE00023F44003E16B0B43C2F88830002601E089
:101AF00000263746236813F4003F6BD09D4B9B6D47
:101B000013F0805F4CD19B4B9A6D42F080529A65E6
:101B10009B6D03F080530193019B4FF00108964A9F
:101B2000136843F480731360FFF72AFA0546924B5B
:101B30001B6813F4807F05D1FFF722FA401B0228AF
:101B4000F5D90327002F40D18A4BD3F8903013F4F6
:101B5000407315D0226D9A4212D0864AD2F8903046
:101B600023F44073D2F8901041F48031C2F8901001
:101B7000D2F8901021F48031C2F89010C2F8903061
:101B800013F0010F0FD1002F40F0C980794AD2F82D
:101B9000903023F44073216D0B43C2F8903015E070
:101BA0004FF00008BBE7FFF7EBF90546714BD3F8A0
:101BB000903013F0020FE6D1FFF7E2F9401B41F23B
:101BC00088339842F2D90327DDE73E46B8F1000F8B
:101BD00040F0A780236813F0010F08D0654AD2F8BF
:101BE000883023F00303216A0B43C2F8883023684E
:101BF00013F0020F08D05F4AD2F8883023F00C03AC
:101C0000616A0B43C2F88830236813F0200F08D0B4
:101C1000584AD2F8883023F44063A16A0B43C2F8D3
:101C20008830236813F4007F08D0524AD2F88830F5
:101C300023F44023616B0B43C2F88830236813F40C
:101C4000806F08D04B4AD2F8883023F44013A16B40
:101C50000B43C2F88830236813F0400F08D0454A80
:101C6000D2F8883023F44053E16A0B43C2F888303D
:101C7000236813F4807F08D03E4AD2F8883023F4DA
:101C80004033216B0B43C2F88830236813F4005FA4
:101C90000FD0384AD2F8883023F04063216C0B43D0
:101CA000C2F88830236CB3F1006F40D0B3F1806F7D
:101CB00042D0236813F4802F0FD02E4AD2F88830F8
:101CC00023F04063616C0B43C2F88830636CB3F15E
:101CD000006F39D0B3F1806F3BD0236813F4804F8D
:101CE0000CD0244AD2F8883023F04053A16C0B4327
:101CF000C2F88830A36CB3F1805F32D0236813F44C
:101D0000004F08D01B4AD2F8883023F08043E16CA2
:101D10000B43C2F88830304602B0BDE8F0813E4641
:101D200054E7144A936D23F08053936552E7D368C8
:101D300043F48013D360BCE70121201DFFF7F4FDBD
:101D40000028B6D00646B4E7D36843F48013D360C6
:101D5000C3E70121201DFFF7E7FD0028BDD006469F
:101D6000BBE70221201DFFF7DFFD0028C6D0064695
:101D7000C4E700BF0010024000700040024A136830
:101D800043F004031360704700100240F0B583B0C5
:101D9000002397E086685F000325BD4026EA05061C
:101DA000CD68BD4035438560466826EA04064D6827
:101DB000C5F300149C4034434460C7685E000325AB
:101DC000B540EC4327EA05078D68B5403D43C56043
:101DD0004D68022D01D0122D13D1DF08083750F8BD
:101DE00027E003F007054FEA850C0F2505FA0CF5EF
:101DF0002EEA050E0D6905FA0CF545EA0E0540F8C8
:101E00002750056825404C6804F00304B4402C4377
:101E100004604C6814F0805F53D0384C256E45F058
:101E200001052566246E04F001040194019C9D08BF
:101E3000AE1C334C54F8267003F00304A6000F24A4
:101E4000B44027EA0407B0F1904F51D02D4CA04286
:101E500050D004F58064A04248D00724B4403C43ED
:101E60000235274E46F82540274C2568D44325EAFD
:101E700002064F6817F4803F01D042EA0506224D62
:101E80002E606D6804EA05064F6817F4003F01D024
:101E900042EA05061C4D6E60AD6804EA05064F680F
:101EA00017F4801F01D042EA0506174DAE60ED68B9
:101EB0002C404E6816F4001F01D042EA0504124A75
:101EC000D46001330A6832FA03F415D001249C402F
:101ED0002240F6D04D686E1E012E7FF65BAF112DAD
:101EE0003FF458AF122D7FF468AF53E70224B5E7F3
:101EF0000024B3E70124B1E703B0F0BD00100240B5
:101F00000000014000040048000401400AB1816162
:101F10007047816270470000024A136843F480737F
:101F20001360704700700040024B186800F4C060F6
:101F3000704700BF00700040B0F5007F0FD01F4B0E
:101F40001B6803F4C063B3F5806F34D01B4A136879
:101F500023F4C06343F48063136000207047174B81
:101F60001B6803F4C063B3F5007F20D0134A1368E5
:101F700023F4C06343F400731360114B1A683223D7
:101F800003FB02F30F4AA2FB03239B0C013300E087
:101F9000013B0A4A526912F4806F01D0002BF7D13D
:101FA000064B5B6913F4806F03D10020704700205B
:101FB0007047032070470020704700BF007000404A
:101FC0000800002083DE1B43074AD36823F4E06344
:101FD0001B041B0C000200F4E060034343F0BF63EA
:101FE00043F40033D360704700ED00E030B4174B8A
:101FF000DB68C3F30223C3F10704042C28BF0424C5
:102000001D1D062D18D9033B4FF0FF3505FA04F4CA
:1020100021EA0401994005FA03F322EA0303194374
:1020200000280BDB0901C9B200F1604000F56140F6
:1020300080F8001330BC70470023E5E700F00F0084
:102040000901C9B2024B1954F4E700BF00ED00E0EA
:1020500014ED00E00138B0F1807F0AD2064B5860E1
:10206000064AF02182F823100020986007221A60A7
:1020700070470120704700BF10E000E000ED00E075
:102080000F49D1F8883043F47003C1F888300D4B04
:102090001A6842F001021A60002098601A6822F063
:1020A000A85222F410221A604FF48052DA601A68A3
:1020B00022F480221A6098614FF000638B607047B1
:1020C00000ED00E000100240DFF834D0FFF7D8FF49
:1020D000002103E00B4B5B58435004310A480B4B83
:1020E00042189A42F6D30A4A02E0002342F8043B1F
:1020F000084B9A42F9D3FEF7A7F8FEF7BDFBFEE7BF
:1021000000000120A821000800000020100000208D
:1021100010000020B0000020FEE70000F8B500BF6E
:10212000F8BC08BC9E467047F8B500BFF8BC08BCB8
:082130009E467047000000000C
:1021380048656C6C6F20576F726C642E0A0D000036
:10214800000000000000000001020304060708095F
:102158000000000001020304A0860100400D0300F6
:10216800801A060000350C0040420F0080841E00D3
:1021780000093D0000127A000024F40000366E01C8
:082188000048E801006CDC02D4
:08219000BCE2FF7F010000002A
:0821980029020008000000000C
:0821A00001020008000000002C
:1021A800010000001000000000093D0000000000D0
:04000005080020C906
:00000001FF
